{
  "_format": "hh-sol-artifact-1",
  "contractName": "Lupin",
  "sourceName": "contracts/NFT.sol",
  "abi": [
    {
      "inputs": [
        {
          "internalType": "string",
          "name": "_initBaseURI",
          "type": "string"
        },
        {
          "internalType": "string",
          "name": "_initNotRevealedURI",
          "type": "string"
        }
      ],
      "stateMutability": "nonpayable",
      "type": "constructor"
    },
    {
      "inputs": [],
      "name": "ApprovalCallerNotOwnerNorApproved",
      "type": "error"
    },
    {
      "inputs": [],
      "name": "ApprovalQueryForNonexistentToken",
      "type": "error"
    },
    {
      "inputs": [],
      "name": "ApprovalToCurrentOwner",
      "type": "error"
    },
    {
      "inputs": [],
      "name": "ApproveToCaller",
      "type": "error"
    },
    {
      "inputs": [],
      "name": "BalanceQueryForZeroAddress",
      "type": "error"
    },
    {
      "inputs": [],
      "name": "MintToZeroAddress",
      "type": "error"
    },
    {
      "inputs": [],
      "name": "MintZeroQuantity",
      "type": "error"
    },
    {
      "inputs": [],
      "name": "OwnerQueryForNonexistentToken",
      "type": "error"
    },
    {
      "inputs": [],
      "name": "TransferCallerNotOwnerNorApproved",
      "type": "error"
    },
    {
      "inputs": [],
      "name": "TransferFromIncorrectOwner",
      "type": "error"
    },
    {
      "inputs": [],
      "name": "TransferToNonERC721ReceiverImplementer",
      "type": "error"
    },
    {
      "inputs": [],
      "name": "TransferToZeroAddress",
      "type": "error"
    },
    {
      "inputs": [],
      "name": "URIQueryForNonexistentToken",
      "type": "error"
    },
    {
      "anonymous": false,
      "inputs": [
        {
          "indexed": true,
          "internalType": "address",
          "name": "owner",
          "type": "address"
        },
        {
          "indexed": true,
          "internalType": "address",
          "name": "approved",
          "type": "address"
        },
        {
          "indexed": true,
          "internalType": "uint256",
          "name": "tokenId",
          "type": "uint256"
        }
      ],
      "name": "Approval",
      "type": "event"
    },
    {
      "anonymous": false,
      "inputs": [
        {
          "indexed": true,
          "internalType": "address",
          "name": "owner",
          "type": "address"
        },
        {
          "indexed": true,
          "internalType": "address",
          "name": "operator",
          "type": "address"
        },
        {
          "indexed": false,
          "internalType": "bool",
          "name": "approved",
          "type": "bool"
        }
      ],
      "name": "ApprovalForAll",
      "type": "event"
    },
    {
      "anonymous": false,
      "inputs": [
        {
          "indexed": true,
          "internalType": "address",
          "name": "previousOwner",
          "type": "address"
        },
        {
          "indexed": true,
          "internalType": "address",
          "name": "newOwner",
          "type": "address"
        }
      ],
      "name": "OwnershipTransferred",
      "type": "event"
    },
    {
      "anonymous": false,
      "inputs": [
        {
          "indexed": true,
          "internalType": "address",
          "name": "from",
          "type": "address"
        },
        {
          "indexed": true,
          "internalType": "address",
          "name": "to",
          "type": "address"
        },
        {
          "indexed": true,
          "internalType": "uint256",
          "name": "tokenId",
          "type": "uint256"
        }
      ],
      "name": "Transfer",
      "type": "event"
    },
    {
      "inputs": [],
      "name": "MAX_BATCH_SIZE",
      "outputs": [
        {
          "internalType": "uint256",
          "name": "",
          "type": "uint256"
        }
      ],
      "stateMutability": "view",
      "type": "function"
    },
    {
      "inputs": [],
      "name": "MAX_PRESALE_SUPPLY",
      "outputs": [
        {
          "internalType": "uint256",
          "name": "",
          "type": "uint256"
        }
      ],
      "stateMutability": "view",
      "type": "function"
    },
    {
      "inputs": [],
      "name": "MAX_SUPPLY",
      "outputs": [
        {
          "internalType": "uint256",
          "name": "",
          "type": "uint256"
        }
      ],
      "stateMutability": "view",
      "type": "function"
    },
    {
      "inputs": [],
      "name": "MINT_PRICE",
      "outputs": [
        {
          "internalType": "uint256",
          "name": "",
          "type": "uint256"
        }
      ],
      "stateMutability": "view",
      "type": "function"
    },
    {
      "inputs": [],
      "name": "MINT_PRICE_PRESALE",
      "outputs": [
        {
          "internalType": "uint256",
          "name": "",
          "type": "uint256"
        }
      ],
      "stateMutability": "view",
      "type": "function"
    },
    {
      "inputs": [
        {
          "internalType": "address",
          "name": "to",
          "type": "address"
        },
        {
          "internalType": "uint256",
          "name": "tokenId",
          "type": "uint256"
        }
      ],
      "name": "approve",
      "outputs": [],
      "stateMutability": "nonpayable",
      "type": "function"
    },
    {
      "inputs": [
        {
          "internalType": "address",
          "name": "owner",
          "type": "address"
        }
      ],
      "name": "balanceOf",
      "outputs": [
        {
          "internalType": "uint256",
          "name": "",
          "type": "uint256"
        }
      ],
      "stateMutability": "view",
      "type": "function"
    },
    {
      "inputs": [],
      "name": "baseExtension",
      "outputs": [
        {
          "internalType": "string",
          "name": "",
          "type": "string"
        }
      ],
      "stateMutability": "view",
      "type": "function"
    },
    {
      "inputs": [],
      "name": "baseURI",
      "outputs": [
        {
          "internalType": "string",
          "name": "",
          "type": "string"
        }
      ],
      "stateMutability": "view",
      "type": "function"
    },
    {
      "inputs": [
        {
          "internalType": "uint256",
          "name": "tokenId",
          "type": "uint256"
        }
      ],
      "name": "getApproved",
      "outputs": [
        {
          "internalType": "address",
          "name": "",
          "type": "address"
        }
      ],
      "stateMutability": "view",
      "type": "function"
    },
    {
      "inputs": [],
      "name": "getOwners",
      "outputs": [
        {
          "internalType": "address[]",
          "name": "",
          "type": "address[]"
        }
      ],
      "stateMutability": "view",
      "type": "function"
    },
    {
      "inputs": [
        {
          "internalType": "address",
          "name": "owner",
          "type": "address"
        },
        {
          "internalType": "address",
          "name": "operator",
          "type": "address"
        }
      ],
      "name": "isApprovedForAll",
      "outputs": [
        {
          "internalType": "bool",
          "name": "",
          "type": "bool"
        }
      ],
      "stateMutability": "view",
      "type": "function"
    },
    {
      "inputs": [
        {
          "internalType": "uint256",
          "name": "_count",
          "type": "uint256"
        }
      ],
      "name": "mint",
      "outputs": [],
      "stateMutability": "payable",
      "type": "function"
    },
    {
      "inputs": [
        {
          "internalType": "uint256",
          "name": "_count",
          "type": "uint256"
        },
        {
          "internalType": "bytes32[]",
          "name": "_proof",
          "type": "bytes32[]"
        }
      ],
      "name": "mintWhitelist",
      "outputs": [],
      "stateMutability": "payable",
      "type": "function"
    },
    {
      "inputs": [],
      "name": "name",
      "outputs": [
        {
          "internalType": "string",
          "name": "",
          "type": "string"
        }
      ],
      "stateMutability": "view",
      "type": "function"
    },
    {
      "inputs": [],
      "name": "notRevealedURI",
      "outputs": [
        {
          "internalType": "string",
          "name": "",
          "type": "string"
        }
      ],
      "stateMutability": "view",
      "type": "function"
    },
    {
      "inputs": [],
      "name": "owner",
      "outputs": [
        {
          "internalType": "address",
          "name": "",
          "type": "address"
        }
      ],
      "stateMutability": "view",
      "type": "function"
    },
    {
      "inputs": [
        {
          "internalType": "uint256",
          "name": "tokenId",
          "type": "uint256"
        }
      ],
      "name": "ownerOf",
      "outputs": [
        {
          "internalType": "address",
          "name": "",
          "type": "address"
        }
      ],
      "stateMutability": "view",
      "type": "function"
    },
    {
      "inputs": [],
      "name": "preSaleStarted",
      "outputs": [
        {
          "internalType": "bool",
          "name": "",
          "type": "bool"
        }
      ],
      "stateMutability": "view",
      "type": "function"
    },
    {
      "inputs": [],
      "name": "preSaleSupply",
      "outputs": [
        {
          "internalType": "uint256",
          "name": "",
          "type": "uint256"
        }
      ],
      "stateMutability": "view",
      "type": "function"
    },
    {
      "inputs": [],
      "name": "renounceOwnership",
      "outputs": [],
      "stateMutability": "nonpayable",
      "type": "function"
    },
    {
      "inputs": [],
      "name": "reveal",
      "outputs": [],
      "stateMutability": "nonpayable",
      "type": "function"
    },
    {
      "inputs": [],
      "name": "revealed",
      "outputs": [
        {
          "internalType": "bool",
          "name": "",
          "type": "bool"
        }
      ],
      "stateMutability": "view",
      "type": "function"
    },
    {
      "inputs": [
        {
          "internalType": "address",
          "name": "from",
          "type": "address"
        },
        {
          "internalType": "address",
          "name": "to",
          "type": "address"
        },
        {
          "internalType": "uint256",
          "name": "tokenId",
          "type": "uint256"
        }
      ],
      "name": "safeTransferFrom",
      "outputs": [],
      "stateMutability": "nonpayable",
      "type": "function"
    },
    {
      "inputs": [
        {
          "internalType": "address",
          "name": "from",
          "type": "address"
        },
        {
          "internalType": "address",
          "name": "to",
          "type": "address"
        },
        {
          "internalType": "uint256",
          "name": "tokenId",
          "type": "uint256"
        },
        {
          "internalType": "bytes",
          "name": "_data",
          "type": "bytes"
        }
      ],
      "name": "safeTransferFrom",
      "outputs": [],
      "stateMutability": "nonpayable",
      "type": "function"
    },
    {
      "inputs": [],
      "name": "saleStarted",
      "outputs": [
        {
          "internalType": "bool",
          "name": "",
          "type": "bool"
        }
      ],
      "stateMutability": "view",
      "type": "function"
    },
    {
      "inputs": [
        {
          "internalType": "address",
          "name": "operator",
          "type": "address"
        },
        {
          "internalType": "bool",
          "name": "approved",
          "type": "bool"
        }
      ],
      "name": "setApprovalForAll",
      "outputs": [],
      "stateMutability": "nonpayable",
      "type": "function"
    },
    {
      "inputs": [
        {
          "internalType": "string",
          "name": "_newBaseURI",
          "type": "string"
        }
      ],
      "name": "setBaseURI",
      "outputs": [],
      "stateMutability": "nonpayable",
      "type": "function"
    },
    {
      "inputs": [
        {
          "internalType": "bytes32",
          "name": "_merkleRootValue",
          "type": "bytes32"
        }
      ],
      "name": "setMerkleRoot",
      "outputs": [
        {
          "internalType": "bytes32",
          "name": "",
          "type": "bytes32"
        }
      ],
      "stateMutability": "nonpayable",
      "type": "function"
    },
    {
      "inputs": [
        {
          "internalType": "string",
          "name": "_notRevealedURI",
          "type": "string"
        }
      ],
      "name": "setNotRevealedURI",
      "outputs": [],
      "stateMutability": "nonpayable",
      "type": "function"
    },
    {
      "inputs": [
        {
          "internalType": "bool",
          "name": "_hasStarted",
          "type": "bool"
        }
      ],
      "name": "setPreSaleStarted",
      "outputs": [],
      "stateMutability": "nonpayable",
      "type": "function"
    },
    {
      "inputs": [
        {
          "internalType": "bool",
          "name": "_hasStarted",
          "type": "bool"
        }
      ],
      "name": "setSaleStarted",
      "outputs": [],
      "stateMutability": "nonpayable",
      "type": "function"
    },
    {
      "inputs": [
        {
          "internalType": "bytes4",
          "name": "interfaceId",
          "type": "bytes4"
        }
      ],
      "name": "supportsInterface",
      "outputs": [
        {
          "internalType": "bool",
          "name": "",
          "type": "bool"
        }
      ],
      "stateMutability": "view",
      "type": "function"
    },
    {
      "inputs": [],
      "name": "symbol",
      "outputs": [
        {
          "internalType": "string",
          "name": "",
          "type": "string"
        }
      ],
      "stateMutability": "view",
      "type": "function"
    },
    {
      "inputs": [
        {
          "internalType": "uint256",
          "name": "tokenId",
          "type": "uint256"
        }
      ],
      "name": "tokenURI",
      "outputs": [
        {
          "internalType": "string",
          "name": "",
          "type": "string"
        }
      ],
      "stateMutability": "view",
      "type": "function"
    },
    {
      "inputs": [],
      "name": "totalSupply",
      "outputs": [
        {
          "internalType": "uint256",
          "name": "",
          "type": "uint256"
        }
      ],
      "stateMutability": "view",
      "type": "function"
    },
    {
      "inputs": [
        {
          "internalType": "address",
          "name": "from",
          "type": "address"
        },
        {
          "internalType": "address",
          "name": "to",
          "type": "address"
        },
        {
          "internalType": "uint256",
          "name": "tokenId",
          "type": "uint256"
        }
      ],
      "name": "transferFrom",
      "outputs": [],
      "stateMutability": "nonpayable",
      "type": "function"
    },
    {
      "inputs": [
        {
          "internalType": "address",
          "name": "newOwner",
          "type": "address"
        }
      ],
      "name": "transferOwnership",
      "outputs": [],
      "stateMutability": "nonpayable",
      "type": "function"
    },
    {
      "inputs": [],
      "name": "withdraw",
      "outputs": [],
      "stateMutability": "nonpayable",
      "type": "function"
    }
  ],
  "bytecode": "0x6080604052670214e8348c4f0000600a556702c68af0bb140000600b556005600c556005600d556000600e60006101000a81548160ff0219169083151502179055506000600e60016101000a81548160ff0219169083151502179055506000600e60026101000a81548160ff0219169083151502179055506040518060400160405280600581526020017f2e6a736f6e000000000000000000000000000000000000000000000000000000815250600f9080519060200190620000c4929190620004ad565b50739415764da92ed2233b68e38d1a93ee042a6def5e601360006101000a81548173ffffffffffffffffffffffffffffffffffffffff021916908373ffffffffffffffffffffffffffffffffffffffff16021790555060006015553480156200012c57600080fd5b5060405162005045380380620050458339818101604052810190620001529190620005db565b6040518060400160405280600581526020017f4c5550494e0000000000000000000000000000000000000000000000000000008152506040518060400160405280600581526020017f4c5550494e0000000000000000000000000000000000000000000000000000008152508160029080519060200190620001d6929190620004ad565b508060039080519060200190620001ef929190620004ad565b50620002006200025a60201b60201c565b6000819055505050620002286200021c6200025f60201b60201c565b6200026760201b60201c565b600160098190555062000241826200032d60201b60201c565b6200025281620003d860201b60201c565b505062000867565b600090565b600033905090565b6000600860009054906101000a900473ffffffffffffffffffffffffffffffffffffffff16905081600860006101000a81548173ffffffffffffffffffffffffffffffffffffffff021916908373ffffffffffffffffffffffffffffffffffffffff1602179055508173ffffffffffffffffffffffffffffffffffffffff168173ffffffffffffffffffffffffffffffffffffffff167f8be0079c531659141344cd1fd0a4f28419497f9722a3daafe3b4186f6b6457e060405160405180910390a35050565b6200033d6200025f60201b60201c565b73ffffffffffffffffffffffffffffffffffffffff16620003636200048360201b60201c565b73ffffffffffffffffffffffffffffffffffffffff1614620003bc576040517f08c379a0000000000000000000000000000000000000000000000000000000008152600401620003b39062000687565b60405180910390fd5b8060109080519060200190620003d4929190620004ad565b5050565b620003e86200025f60201b60201c565b73ffffffffffffffffffffffffffffffffffffffff166200040e6200048360201b60201c565b73ffffffffffffffffffffffffffffffffffffffff161462000467576040517f08c379a00000000000000000000000000000000000000000000000000000000081526004016200045e9062000687565b60405180910390fd5b80601190805190602001906200047f929190620004ad565b5050565b6000600860009054906101000a900473ffffffffffffffffffffffffffffffffffffffff16905090565b828054620004bb906200074f565b90600052602060002090601f016020900481019282620004df57600085556200052b565b82601f10620004fa57805160ff19168380011785556200052b565b828001600101855582156200052b579182015b828111156200052a5782518255916020019190600101906200050d565b5b5090506200053a91906200053e565b5090565b5b80821115620005595760008160009055506001016200053f565b5090565b6000620005746200056e84620006d2565b620006a9565b9050828152602081018484840111156200059357620005926200081e565b5b620005a084828562000719565b509392505050565b600082601f830112620005c057620005bf62000819565b5b8151620005d28482602086016200055d565b91505092915050565b60008060408385031215620005f557620005f462000828565b5b600083015167ffffffffffffffff81111562000616576200061562000823565b5b6200062485828601620005a8565b925050602083015167ffffffffffffffff81111562000648576200064762000823565b5b6200065685828601620005a8565b9150509250929050565b60006200066f60208362000708565b91506200067c826200083e565b602082019050919050565b60006020820190508181036000830152620006a28162000660565b9050919050565b6000620006b5620006c8565b9050620006c3828262000785565b919050565b6000604051905090565b600067ffffffffffffffff821115620006f057620006ef620007ea565b5b620006fb826200082d565b9050602081019050919050565b600082825260208201905092915050565b60005b83811015620007395780820151818401526020810190506200071c565b8381111562000749576000848401525b50505050565b600060028204905060018216806200076857607f821691505b602082108114156200077f576200077e620007bb565b5b50919050565b62000790826200082d565b810181811067ffffffffffffffff82111715620007b257620007b1620007ea565b5b80604052505050565b7f4e487b7100000000000000000000000000000000000000000000000000000000600052602260045260246000fd5b7f4e487b7100000000000000000000000000000000000000000000000000000000600052604160045260246000fd5b600080fd5b600080fd5b600080fd5b600080fd5b6000601f19601f8301169050919050565b7f4f776e61626c653a2063616c6c6572206973206e6f7420746865206f776e6572600082015250565b6147ce80620008776000396000f3fe6080604052600436106102305760003560e01c8063715018a61161012e578063b88d4fde116100ab578063ddab315e1161006f578063ddab315e146107ef578063e59ee0141461081a578063e985e9c514610843578063f2c4ce1e14610880578063f2fde38b146108a957610230565b8063b88d4fde14610708578063c002d23d14610731578063c66828621461075c578063c87b56dd14610787578063cfdbf254146107c457610230565b8063a0712d68116100f2578063a0712d6814610658578063a0e67e2b14610674578063a22cb4651461069f578063a475b5dd146106c8578063a854ffba146106df57610230565b8063715018a614610583578063722503801461059a5780637cb64759146105c55780638da5cb5b1461060257806395d89b411461062d57610230565b80633ccfd60b116101bc5780636352211e116101805780636352211e14610488578063690cf0d1146104c55780636b8dc355146104f05780636c0360eb1461051b57806370a082311461054657610230565b80633ccfd60b146103c957806342842e0e146103e0578063518302271461040957806355f804b3146104345780635c474f9e1461045d57610230565b8063095ea7b311610203578063095ea7b3146102f657806318160ddd1461031f57806323b872dd1461034a5780632e055bcc1461037357806332cb6b0c1461039e57610230565b806301ffc9a714610235578063061431a81461027257806306fdde031461028e578063081812fc146102b9575b600080fd5b34801561024157600080fd5b5061025c60048036038101906102579190613735565b6108d2565b6040516102699190613d68565b60405180910390f35b61028c60048036038101906102879190613805565b6109b4565b005b34801561029a57600080fd5b506102a3610b92565b6040516102b09190613d9e565b60405180910390f35b3480156102c557600080fd5b506102e060048036038101906102db91906137d8565b610c24565b6040516102ed9190613cdf565b60405180910390f35b34801561030257600080fd5b5061031d6004803603810190610318919061369b565b610ca0565b005b34801561032b57600080fd5b50610334610da5565b6040516103419190613f60565b60405180910390f35b34801561035657600080fd5b50610371600480360381019061036c9190613585565b610dbc565b005b34801561037f57600080fd5b50610388610dcc565b6040516103959190613f60565b60405180910390f35b3480156103aa57600080fd5b506103b3610dd2565b6040516103c09190613f60565b60405180910390f35b3480156103d557600080fd5b506103de610dd8565b005b3480156103ec57600080fd5b5061040760048036038101906104029190613585565b610fd6565b005b34801561041557600080fd5b5061041e610ff6565b60405161042b9190613d68565b60405180910390f35b34801561044057600080fd5b5061045b6004803603810190610456919061378f565b611009565b005b34801561046957600080fd5b5061047261109f565b60405161047f9190613d68565b60405180910390f35b34801561049457600080fd5b506104af60048036038101906104aa91906137d8565b6110b2565b6040516104bc9190613cdf565b60405180910390f35b3480156104d157600080fd5b506104da6110c8565b6040516104e79190613d68565b60405180910390f35b3480156104fc57600080fd5b506105056110db565b6040516105129190613f60565b60405180910390f35b34801561052757600080fd5b506105306110e1565b60405161053d9190613d9e565b60405180910390f35b34801561055257600080fd5b5061056d60048036038101906105689190613518565b61116f565b60405161057a9190613f60565b60405180910390f35b34801561058f57600080fd5b5061059861123f565b005b3480156105a657600080fd5b506105af6112c7565b6040516105bc9190613d9e565b60405180910390f35b3480156105d157600080fd5b506105ec60048036038101906105e79190613708565b611355565b6040516105f99190613d83565b60405180910390f35b34801561060e57600080fd5b506106176113e4565b6040516106249190613cdf565b60405180910390f35b34801561063957600080fd5b5061064261140e565b60405161064f9190613d9e565b60405180910390f35b610672600480360381019061066d91906137d8565b6114a0565b005b34801561068057600080fd5b506106896115a8565b6040516106969190613d46565b60405180910390f35b3480156106ab57600080fd5b506106c660048036038101906106c1919061365b565b611744565b005b3480156106d457600080fd5b506106dd6118bc565b005b3480156106eb57600080fd5b50610706600480360381019061070191906136db565b611955565b005b34801561071457600080fd5b5061072f600480360381019061072a91906135d8565b611a44565b005b34801561073d57600080fd5b50610746611abc565b6040516107539190613f60565b60405180910390f35b34801561076857600080fd5b50610771611ac2565b60405161077e9190613d9e565b60405180910390f35b34801561079357600080fd5b506107ae60048036038101906107a991906137d8565b611b50565b6040516107bb9190613d9e565b60405180910390f35b3480156107d057600080fd5b506107d9611cbb565b6040516107e69190613f60565b60405180910390f35b3480156107fb57600080fd5b50610804611cc1565b6040516108119190613f60565b60405180910390f35b34801561082657600080fd5b50610841600480360381019061083c91906136db565b611cc7565b005b34801561084f57600080fd5b5061086a60048036038101906108659190613545565b611db6565b6040516108779190613d68565b60405180910390f35b34801561088c57600080fd5b506108a760048036038101906108a2919061378f565b611e4a565b005b3480156108b557600080fd5b506108d060048036038101906108cb9190613518565b611ee0565b005b60007f80ac58cd000000000000000000000000000000000000000000000000000000007bffffffffffffffffffffffffffffffffffffffffffffffffffffffff1916827bffffffffffffffffffffffffffffffffffffffffffffffffffffffff1916148061099d57507f5b5e139f000000000000000000000000000000000000000000000000000000007bffffffffffffffffffffffffffffffffffffffffffffffffffffffff1916827bffffffffffffffffffffffffffffffffffffffffffffffffffffffff1916145b806109ad57506109ac82611fd8565b5b9050919050565b600115156109ca6109c433612042565b83612072565b151514610a0c576040517f08c379a0000000000000000000000000000000000000000000000000000000008152600401610a0390613de0565b60405180910390fd5b6000610a173361212a565b9050600083118015610a365750600d548382610a3391906140bf565b11155b8015610a5157506101f483601554610a4e91906140bf565b11155b610a90576040517f08c379a0000000000000000000000000000000000000000000000000000000008152600401610a8790613f20565b60405180910390fd5b600e60009054906101000a900460ff16610adf576040517f08c379a0000000000000000000000000000000000000000000000000000000008152600401610ad690613e40565b60405180910390fd5b610ae76113e4565b73ffffffffffffffffffffffffffffffffffffffff163373ffffffffffffffffffffffffffffffffffffffff1614610b6a5782600a54610b279190614146565b341015610b69576040517f08c379a0000000000000000000000000000000000000000000000000000000008152600401610b6090613e60565b60405180910390fd5b5b610b743384612194565b8260156000828254610b8691906140bf565b92505081905550505050565b606060028054610ba190614294565b80601f0160208091040260200160405190810160405280929190818152602001828054610bcd90614294565b8015610c1a5780601f10610bef57610100808354040283529160200191610c1a565b820191906000526020600020905b815481529060010190602001808311610bfd57829003601f168201915b5050505050905090565b6000610c2f826121b2565b610c65576040517fcf4700e400000000000000000000000000000000000000000000000000000000815260040160405180910390fd5b6006600083815260200190815260200160002060009054906101000a900473ffffffffffffffffffffffffffffffffffffffff169050919050565b6000610cab826110b2565b90508073ffffffffffffffffffffffffffffffffffffffff168373ffffffffffffffffffffffffffffffffffffffff161415610d13576040517f943f7b8c00000000000000000000000000000000000000000000000000000000815260040160405180910390fd5b8073ffffffffffffffffffffffffffffffffffffffff16610d32612200565b73ffffffffffffffffffffffffffffffffffffffff1614610d9557610d5e81610d59612200565b611db6565b610d94576040517fcfb3b94200000000000000000000000000000000000000000000000000000000815260040160405180910390fd5b5b610da0838383612208565b505050565b6000610daf6122ba565b6001546000540303905090565b610dc78383836122bf565b505050565b60155481565b610d0581565b610de0612200565b73ffffffffffffffffffffffffffffffffffffffff16610dfe6113e4565b73ffffffffffffffffffffffffffffffffffffffff1614610e54576040517f08c379a0000000000000000000000000000000000000000000000000000000008152600401610e4b90613ea0565b60405180910390fd5b60026009541415610e9a576040517f08c379a0000000000000000000000000000000000000000000000000000000008152600401610e9190613ee0565b60405180910390fd5b600260098190555060004711610ee5576040517f08c379a0000000000000000000000000000000000000000000000000000000008152600401610edc90613ec0565b60405180910390fd5b60004790506000610f0060648361277590919063ffffffff16565b90506000610f17828461278b90919063ffffffff16565b9050601360009054906101000a900473ffffffffffffffffffffffffffffffffffffffff1673ffffffffffffffffffffffffffffffffffffffff166108fc839081150290604051600060405180830381858888f19350505050158015610f81573d6000803e3d6000fd5b503373ffffffffffffffffffffffffffffffffffffffff166108fc829081150290604051600060405180830381858888f19350505050158015610fc8573d6000803e3d6000fd5b505050506001600981905550565b610ff183838360405180602001604052806000815250611a44565b505050565b600e60029054906101000a900460ff1681565b611011612200565b73ffffffffffffffffffffffffffffffffffffffff1661102f6113e4565b73ffffffffffffffffffffffffffffffffffffffff1614611085576040517f08c379a000000000000000000000000000000000000000000000000000000000815260040161107c90613ea0565b60405180910390fd5b806010908051906020019061109b929190613236565b5050565b600e60019054906101000a900460ff1681565b60006110bd826127a1565b600001519050919050565b600e60009054906101000a900460ff1681565b6101f481565b601080546110ee90614294565b80601f016020809104026020016040519081016040528092919081815260200182805461111a90614294565b80156111675780601f1061113c57610100808354040283529160200191611167565b820191906000526020600020905b81548152906001019060200180831161114a57829003601f168201915b505050505081565b60008073ffffffffffffffffffffffffffffffffffffffff168273ffffffffffffffffffffffffffffffffffffffff1614156111d7576040517f8f4eb60400000000000000000000000000000000000000000000000000000000815260040160405180910390fd5b600560008373ffffffffffffffffffffffffffffffffffffffff1673ffffffffffffffffffffffffffffffffffffffff16815260200190815260200160002060000160009054906101000a900467ffffffffffffffff1667ffffffffffffffff169050919050565b611247612200565b73ffffffffffffffffffffffffffffffffffffffff166112656113e4565b73ffffffffffffffffffffffffffffffffffffffff16146112bb576040517f08c379a00000000000000000000000000000000000000000000000000000000081526004016112b290613ea0565b60405180910390fd5b6112c56000612a2c565b565b601180546112d490614294565b80601f016020809104026020016040519081016040528092919081815260200182805461130090614294565b801561134d5780601f106113225761010080835404028352916020019161134d565b820191906000526020600020905b81548152906001019060200180831161133057829003601f168201915b505050505081565b600061135f612200565b73ffffffffffffffffffffffffffffffffffffffff1661137d6113e4565b73ffffffffffffffffffffffffffffffffffffffff16146113d3576040517f08c379a00000000000000000000000000000000000000000000000000000000081526004016113ca90613ea0565b60405180910390fd5b816012819055506012549050919050565b6000600860009054906101000a900473ffffffffffffffffffffffffffffffffffffffff16905090565b60606003805461141d90614294565b80601f016020809104026020016040519081016040528092919081815260200182805461144990614294565b80156114965780601f1061146b57610100808354040283529160200191611496565b820191906000526020600020905b81548152906001019060200180831161147957829003601f168201915b5050505050905090565b600e60019054906101000a900460ff166114ef576040517f08c379a00000000000000000000000000000000000000000000000000000000081526004016114e690613e20565b60405180910390fd5b610d05816114fb610da5565b61150591906140bf565b1115611546576040517f08c379a000000000000000000000000000000000000000000000000000000000815260040161153d90613f40565b60405180910390fd5b61154e6113e4565b73ffffffffffffffffffffffffffffffffffffffff163373ffffffffffffffffffffffffffffffffffffffff161461159b5780600b5461158e9190614146565b34101561159a57600080fd5b5b6115a53382612194565b50565b60606115b2612200565b73ffffffffffffffffffffffffffffffffffffffff166115d06113e4565b73ffffffffffffffffffffffffffffffffffffffff1614611626576040517f08c379a000000000000000000000000000000000000000000000000000000000815260040161161d90613ea0565b60405180910390fd5b6000611630610da5565b905060008167ffffffffffffffff81111561164e5761164d61445b565b5b60405190808252806020026020018201604052801561167c5781602001602082028036833780820191505090505b50905060005b8281101561173b57611693816121b2565b6116d2576040517f08c379a00000000000000000000000000000000000000000000000000000000081526004016116c990613e80565b60405180910390fd5b6116db816110b2565b8282815181106116ee576116ed61442c565b5b602002602001019073ffffffffffffffffffffffffffffffffffffffff16908173ffffffffffffffffffffffffffffffffffffffff16815250508080611733906142f7565b915050611682565b50809250505090565b61174c612200565b73ffffffffffffffffffffffffffffffffffffffff168273ffffffffffffffffffffffffffffffffffffffff1614156117b1576040517fb06307db00000000000000000000000000000000000000000000000000000000815260040160405180910390fd5b80600760006117be612200565b73ffffffffffffffffffffffffffffffffffffffff1673ffffffffffffffffffffffffffffffffffffffff16815260200190815260200160002060008473ffffffffffffffffffffffffffffffffffffffff1673ffffffffffffffffffffffffffffffffffffffff16815260200190815260200160002060006101000a81548160ff0219169083151502179055508173ffffffffffffffffffffffffffffffffffffffff1661186b612200565b73ffffffffffffffffffffffffffffffffffffffff167f17307eab39ab6107e8899845ad3d59bd9653f200f220920489ca2b5937696c31836040516118b09190613d68565b60405180910390a35050565b6118c4612200565b73ffffffffffffffffffffffffffffffffffffffff166118e26113e4565b73ffffffffffffffffffffffffffffffffffffffff1614611938576040517f08c379a000000000000000000000000000000000000000000000000000000000815260040161192f90613ea0565b60405180910390fd5b6001600e60026101000a81548160ff021916908315150217905550565b61195d612200565b73ffffffffffffffffffffffffffffffffffffffff1661197b6113e4565b73ffffffffffffffffffffffffffffffffffffffff16146119d1576040517f08c379a00000000000000000000000000000000000000000000000000000000081526004016119c890613ea0565b60405180910390fd5b801515600e60019054906101000a900460ff1615151415611a27576040517f08c379a0000000000000000000000000000000000000000000000000000000008152600401611a1e90613dc0565b60405180910390fd5b80600e60016101000a81548160ff02191690831515021790555050565b611a4f8484846122bf565b611a6e8373ffffffffffffffffffffffffffffffffffffffff16612af2565b15611ab657611a7f84848484612b15565b611ab5576040517fd1a57ed600000000000000000000000000000000000000000000000000000000815260040160405180910390fd5b5b50505050565b600b5481565b600f8054611acf90614294565b80601f0160208091040260200160405190810160405280929190818152602001828054611afb90614294565b8015611b485780601f10611b1d57610100808354040283529160200191611b48565b820191906000526020600020905b815481529060010190602001808311611b2b57829003601f168201915b505050505081565b6060611b5b826121b2565b611b9a576040517f08c379a0000000000000000000000000000000000000000000000000000000008152600401611b9190613e80565b60405180910390fd5b600060405180602001604052806000815250905060001515600e60029054906101000a900460ff1615151415611c5c5760118054611bd790614294565b80601f0160208091040260200160405190810160405280929190818152602001828054611c0390614294565b8015611c505780601f10611c2557610100808354040283529160200191611c50565b820191906000526020600020905b815481529060010190602001808311611c3357829003601f168201915b50505050509050611c67565b611c64612c75565b90505b6000815111611c855760405180602001604052806000815250611cb3565b80611c8f84612d07565b600f604051602001611ca393929190613ca3565b6040516020818303038152906040525b915050919050565b600c5481565b600a5481565b611ccf612200565b73ffffffffffffffffffffffffffffffffffffffff16611ced6113e4565b73ffffffffffffffffffffffffffffffffffffffff1614611d43576040517f08c379a0000000000000000000000000000000000000000000000000000000008152600401611d3a90613ea0565b60405180910390fd5b801515600e60009054906101000a900460ff1615151415611d99576040517f08c379a0000000000000000000000000000000000000000000000000000000008152600401611d9090613f00565b60405180910390fd5b80600e60006101000a81548160ff02191690831515021790555050565b6000600760008473ffffffffffffffffffffffffffffffffffffffff1673ffffffffffffffffffffffffffffffffffffffff16815260200190815260200160002060008373ffffffffffffffffffffffffffffffffffffffff1673ffffffffffffffffffffffffffffffffffffffff16815260200190815260200160002060009054906101000a900460ff16905092915050565b611e52612200565b73ffffffffffffffffffffffffffffffffffffffff16611e706113e4565b73ffffffffffffffffffffffffffffffffffffffff1614611ec6576040517f08c379a0000000000000000000000000000000000000000000000000000000008152600401611ebd90613ea0565b60405180910390fd5b8060119080519060200190611edc929190613236565b5050565b611ee8612200565b73ffffffffffffffffffffffffffffffffffffffff16611f066113e4565b73ffffffffffffffffffffffffffffffffffffffff1614611f5c576040517f08c379a0000000000000000000000000000000000000000000000000000000008152600401611f5390613ea0565b60405180910390fd5b600073ffffffffffffffffffffffffffffffffffffffff168173ffffffffffffffffffffffffffffffffffffffff161415611fcc576040517f08c379a0000000000000000000000000000000000000000000000000000000008152600401611fc390613e00565b60405180910390fd5b611fd581612a2c565b50565b60007f01ffc9a7000000000000000000000000000000000000000000000000000000007bffffffffffffffffffffffffffffffffffffffffffffffffffffffff1916827bffffffffffffffffffffffffffffffffffffffffffffffffffffffff1916149050919050565b6000816040516020016120559190613c5c565b604051602081830303815290604052805190602001209050919050565b60008083905060005b835181101561211b5760008482815181106120995761209861442c565b5b60200260200101519050808310156120db5782816040516020016120be929190613c77565b604051602081830303815290604052805190602001209250612107565b80836040516020016120ee929190613c77565b6040516020818303038152906040528051906020012092505b508080612113906142f7565b91505061207b565b50601254811491505092915050565b6000600560008373ffffffffffffffffffffffffffffffffffffffff1673ffffffffffffffffffffffffffffffffffffffff16815260200190815260200160002060000160089054906101000a900467ffffffffffffffff1667ffffffffffffffff169050919050565b6121ae828260405180602001604052806000815250612e68565b5050565b6000816121bd6122ba565b111580156121cc575060005482105b80156121f9575060046000838152602001908152602001600020600001601c9054906101000a900460ff16155b9050919050565b600033905090565b826006600084815260200190815260200160002060006101000a81548173ffffffffffffffffffffffffffffffffffffffff021916908373ffffffffffffffffffffffffffffffffffffffff160217905550818373ffffffffffffffffffffffffffffffffffffffff168273ffffffffffffffffffffffffffffffffffffffff167f8c5be1e5ebec7d5bd14f71427d1e84f3dd0314c0f7b2291e5b200ac8c7c3b92560405160405180910390a4505050565b600090565b60006122ca826127a1565b90508373ffffffffffffffffffffffffffffffffffffffff16816000015173ffffffffffffffffffffffffffffffffffffffff1614612335576040517fa114810000000000000000000000000000000000000000000000000000000000815260040160405180910390fd5b60008473ffffffffffffffffffffffffffffffffffffffff16612356612200565b73ffffffffffffffffffffffffffffffffffffffff16148061238557506123848561237f612200565b611db6565b5b806123ca5750612393612200565b73ffffffffffffffffffffffffffffffffffffffff166123b284610c24565b73ffffffffffffffffffffffffffffffffffffffff16145b905080612403576040517f59c896be00000000000000000000000000000000000000000000000000000000815260040160405180910390fd5b600073ffffffffffffffffffffffffffffffffffffffff168473ffffffffffffffffffffffffffffffffffffffff16141561246a576040517fea553b3400000000000000000000000000000000000000000000000000000000815260040160405180910390fd5b612477858585600161322a565b61248360008487612208565b6001600560008773ffffffffffffffffffffffffffffffffffffffff1673ffffffffffffffffffffffffffffffffffffffff16815260200190815260200160002060000160008282829054906101000a900467ffffffffffffffff160392506101000a81548167ffffffffffffffff021916908367ffffffffffffffff1602179055506001600560008673ffffffffffffffffffffffffffffffffffffffff1673ffffffffffffffffffffffffffffffffffffffff16815260200190815260200160002060000160008282829054906101000a900467ffffffffffffffff160192506101000a81548167ffffffffffffffff021916908367ffffffffffffffff1602179055506000600460008581526020019081526020016000209050848160000160006101000a81548173ffffffffffffffffffffffffffffffffffffffff021916908373ffffffffffffffffffffffffffffffffffffffff160217905550428160000160146101000a81548167ffffffffffffffff021916908367ffffffffffffffff16021790555060006001850190506000600460008381526020019081526020016000209050600073ffffffffffffffffffffffffffffffffffffffff168160000160009054906101000a900473ffffffffffffffffffffffffffffffffffffffff1673ffffffffffffffffffffffffffffffffffffffff16141561270357600054821461270257878160000160006101000a81548173ffffffffffffffffffffffffffffffffffffffff021916908373ffffffffffffffffffffffffffffffffffffffff16021790555084602001518160000160146101000a81548167ffffffffffffffff021916908367ffffffffffffffff1602179055505b5b505050828473ffffffffffffffffffffffffffffffffffffffff168673ffffffffffffffffffffffffffffffffffffffff167fddf252ad1be2c89b69c2b068fc378daa952ba7f163c4a11628f55a4df523b3ef60405160405180910390a461276e8585856001613230565b5050505050565b600081836127839190614115565b905092915050565b6000818361279991906141a0565b905092915050565b6127a96132bc565b6000829050806127b76122ba565b116129f5576000548110156129f4576000600460008381526020019081526020016000206040518060600160405290816000820160009054906101000a900473ffffffffffffffffffffffffffffffffffffffff1673ffffffffffffffffffffffffffffffffffffffff1673ffffffffffffffffffffffffffffffffffffffff1681526020016000820160149054906101000a900467ffffffffffffffff1667ffffffffffffffff1667ffffffffffffffff16815260200160008201601c9054906101000a900460ff161515151581525050905080604001516129f257600073ffffffffffffffffffffffffffffffffffffffff16816000015173ffffffffffffffffffffffffffffffffffffffff16146128d6578092505050612a27565b5b6001156129f157818060019003925050600460008381526020019081526020016000206040518060600160405290816000820160009054906101000a900473ffffffffffffffffffffffffffffffffffffffff1673ffffffffffffffffffffffffffffffffffffffff1673ffffffffffffffffffffffffffffffffffffffff1681526020016000820160149054906101000a900467ffffffffffffffff1667ffffffffffffffff1667ffffffffffffffff16815260200160008201601c9054906101000a900460ff1615151515815250509050600073ffffffffffffffffffffffffffffffffffffffff16816000015173ffffffffffffffffffffffffffffffffffffffff16146129ec578092505050612a27565b6128d7565b5b505b5b6040517fdf2d9b4200000000000000000000000000000000000000000000000000000000815260040160405180910390fd5b919050565b6000600860009054906101000a900473ffffffffffffffffffffffffffffffffffffffff16905081600860006101000a81548173ffffffffffffffffffffffffffffffffffffffff021916908373ffffffffffffffffffffffffffffffffffffffff1602179055508173ffffffffffffffffffffffffffffffffffffffff168173ffffffffffffffffffffffffffffffffffffffff167f8be0079c531659141344cd1fd0a4f28419497f9722a3daafe3b4186f6b6457e060405160405180910390a35050565b6000808273ffffffffffffffffffffffffffffffffffffffff163b119050919050565b60008373ffffffffffffffffffffffffffffffffffffffff1663150b7a02612b3b612200565b8786866040518563ffffffff1660e01b8152600401612b5d9493929190613cfa565b602060405180830381600087803b158015612b7757600080fd5b505af1925050508015612ba857506040513d601f19601f82011682018060405250810190612ba59190613762565b60015b612c22573d8060008114612bd8576040519150601f19603f3d011682016040523d82523d6000602084013e612bdd565b606091505b50600081511415612c1a576040517fd1a57ed600000000000000000000000000000000000000000000000000000000815260040160405180910390fd5b805181602001fd5b63150b7a0260e01b7bffffffffffffffffffffffffffffffffffffffffffffffffffffffff1916817bffffffffffffffffffffffffffffffffffffffffffffffffffffffff191614915050949350505050565b606060108054612c8490614294565b80601f0160208091040260200160405190810160405280929190818152602001828054612cb090614294565b8015612cfd5780601f10612cd257610100808354040283529160200191612cfd565b820191906000526020600020905b815481529060010190602001808311612ce057829003601f168201915b5050505050905090565b60606000821415612d4f576040518060400160405280600181526020017f30000000000000000000000000000000000000000000000000000000000000008152509050612e63565b600082905060005b60008214612d81578080612d6a906142f7565b915050600a82612d7a9190614115565b9150612d57565b60008167ffffffffffffffff811115612d9d57612d9c61445b565b5b6040519080825280601f01601f191660200182016040528015612dcf5781602001600182028036833780820191505090505b5090505b60008514612e5c57600182612de891906141a0565b9150600a85612df7919061436e565b6030612e0391906140bf565b60f81b818381518110612e1957612e1861442c565b5b60200101907effffffffffffffffffffffffffffffffffffffffffffffffffffffffffffff1916908160001a905350600a85612e559190614115565b9450612dd3565b8093505050505b919050565b600080549050600073ffffffffffffffffffffffffffffffffffffffff168473ffffffffffffffffffffffffffffffffffffffff161415612ed5576040517f2e07630000000000000000000000000000000000000000000000000000000000815260040160405180910390fd5b6000831415612f10576040517fb562e8dd00000000000000000000000000000000000000000000000000000000815260040160405180910390fd5b612f1d600085838661322a565b82600560008673ffffffffffffffffffffffffffffffffffffffff1673ffffffffffffffffffffffffffffffffffffffff16815260200190815260200160002060000160008282829054906101000a900467ffffffffffffffff160192506101000a81548167ffffffffffffffff021916908367ffffffffffffffff16021790555082600560008673ffffffffffffffffffffffffffffffffffffffff1673ffffffffffffffffffffffffffffffffffffffff16815260200190815260200160002060000160088282829054906101000a900467ffffffffffffffff160192506101000a81548167ffffffffffffffff021916908367ffffffffffffffff160217905550836004600083815260200190815260200160002060000160006101000a81548173ffffffffffffffffffffffffffffffffffffffff021916908373ffffffffffffffffffffffffffffffffffffffff160217905550426004600083815260200190815260200160002060000160146101000a81548167ffffffffffffffff021916908367ffffffffffffffff1602179055506000819050600084820190506130de8673ffffffffffffffffffffffffffffffffffffffff16612af2565b156131a3575b818673ffffffffffffffffffffffffffffffffffffffff16600073ffffffffffffffffffffffffffffffffffffffff167fddf252ad1be2c89b69c2b068fc378daa952ba7f163c4a11628f55a4df523b3ef60405160405180910390a46131536000878480600101955087612b15565b613189576040517fd1a57ed600000000000000000000000000000000000000000000000000000000815260040160405180910390fd5b8082106130e457826000541461319e57600080fd5b61320e565b5b818060010192508673ffffffffffffffffffffffffffffffffffffffff16600073ffffffffffffffffffffffffffffffffffffffff167fddf252ad1be2c89b69c2b068fc378daa952ba7f163c4a11628f55a4df523b3ef60405160405180910390a48082106131a4575b8160008190555050506132246000858386613230565b50505050565b50505050565b50505050565b82805461324290614294565b90600052602060002090601f01602090048101928261326457600085556132ab565b82601f1061327d57805160ff19168380011785556132ab565b828001600101855582156132ab579182015b828111156132aa57825182559160200191906001019061328f565b5b5090506132b891906132ff565b5090565b6040518060600160405280600073ffffffffffffffffffffffffffffffffffffffff168152602001600067ffffffffffffffff1681526020016000151581525090565b5b80821115613318576000816000905550600101613300565b5090565b600061332f61332a84613fa0565b613f7b565b905080838252602082019050828560208602820111156133525761335161448f565b5b60005b8581101561338257816133688882613468565b845260208401935060208301925050600181019050613355565b5050509392505050565b600061339f61339a84613fcc565b613f7b565b9050828152602081018484840111156133bb576133ba614494565b5b6133c6848285614252565b509392505050565b60006133e16133dc84613ffd565b613f7b565b9050828152602081018484840111156133fd576133fc614494565b5b613408848285614252565b509392505050565b60008135905061341f81614725565b92915050565b600082601f83011261343a5761343961448a565b5b813561344a84826020860161331c565b91505092915050565b6000813590506134628161473c565b92915050565b60008135905061347781614753565b92915050565b60008135905061348c8161476a565b92915050565b6000815190506134a18161476a565b92915050565b600082601f8301126134bc576134bb61448a565b5b81356134cc84826020860161338c565b91505092915050565b600082601f8301126134ea576134e961448a565b5b81356134fa8482602086016133ce565b91505092915050565b60008135905061351281614781565b92915050565b60006020828403121561352e5761352d61449e565b5b600061353c84828501613410565b91505092915050565b6000806040838503121561355c5761355b61449e565b5b600061356a85828601613410565b925050602061357b85828601613410565b9150509250929050565b60008060006060848603121561359e5761359d61449e565b5b60006135ac86828701613410565b93505060206135bd86828701613410565b92505060406135ce86828701613503565b9150509250925092565b600080600080608085870312156135f2576135f161449e565b5b600061360087828801613410565b945050602061361187828801613410565b935050604061362287828801613503565b925050606085013567ffffffffffffffff81111561364357613642614499565b5b61364f878288016134a7565b91505092959194509250565b600080604083850312156136725761367161449e565b5b600061368085828601613410565b925050602061369185828601613453565b9150509250929050565b600080604083850312156136b2576136b161449e565b5b60006136c085828601613410565b92505060206136d185828601613503565b9150509250929050565b6000602082840312156136f1576136f061449e565b5b60006136ff84828501613453565b91505092915050565b60006020828403121561371e5761371d61449e565b5b600061372c84828501613468565b91505092915050565b60006020828403121561374b5761374a61449e565b5b60006137598482850161347d565b91505092915050565b6000602082840312156137785761377761449e565b5b600061378684828501613492565b91505092915050565b6000602082840312156137a5576137a461449e565b5b600082013567ffffffffffffffff8111156137c3576137c2614499565b5b6137cf848285016134d5565b91505092915050565b6000602082840312156137ee576137ed61449e565b5b60006137fc84828501613503565b91505092915050565b6000806040838503121561381c5761381b61449e565b5b600061382a85828601613503565b925050602083013567ffffffffffffffff81111561384b5761384a614499565b5b61385785828601613425565b9150509250929050565b600061386d8383613879565b60208301905092915050565b613882816141d4565b82525050565b613891816141d4565b82525050565b6138a86138a3826141d4565b614340565b82525050565b60006138b982614053565b6138c38185614081565b93506138ce8361402e565b8060005b838110156138ff5781516138e68882613861565b97506138f183614074565b9250506001810190506138d2565b5085935050505092915050565b613915816141e6565b82525050565b613924816141f2565b82525050565b61393b613936826141f2565b614352565b82525050565b600061394c8261405e565b6139568185614092565b9350613966818560208601614261565b61396f816144a3565b840191505092915050565b600061398582614069565b61398f81856140a3565b935061399f818560208601614261565b6139a8816144a3565b840191505092915050565b60006139be82614069565b6139c881856140b4565b93506139d8818560208601614261565b80840191505092915050565b600081546139f181614294565b6139fb81866140b4565b94506001821660008114613a165760018114613a2757613a5a565b60ff19831686528186019350613a5a565b613a308561403e565b60005b83811015613a5257815481890152600182019150602081019050613a33565b838801955050505b50505092915050565b6000613a706018836140a3565b9150613a7b826144c1565b602082019050919050565b6000613a93600f836140a3565b9150613a9e826144ea565b602082019050919050565b6000613ab66026836140a3565b9150613ac182614513565b604082019050919050565b6000613ad96010836140a3565b9150613ae482614562565b602082019050919050565b6000613afc6013836140a3565b9150613b078261458b565b602082019050919050565b6000613b1f600a836140a3565b9150613b2a826145b4565b602082019050919050565b6000613b426014836140a3565b9150613b4d826145dd565b602082019050919050565b6000613b656020836140a3565b9150613b7082614606565b602082019050919050565b6000613b88600d836140a3565b9150613b938261462f565b602082019050919050565b6000613bab601f836140a3565b9150613bb682614658565b602082019050919050565b6000613bce601b836140a3565b9150613bd982614681565b602082019050919050565b6000613bf1600d836140a3565b9150613bfc826146aa565b602082019050919050565b6000613c146012836140a3565b9150613c1f826146d3565b602082019050919050565b6000613c376001836140b4565b9150613c42826146fc565b600182019050919050565b613c5681614248565b82525050565b6000613c688284613897565b60148201915081905092915050565b6000613c83828561392a565b602082019150613c93828461392a565b6020820191508190509392505050565b6000613caf82866139b3565b9150613cba82613c2a565b9150613cc682856139b3565b9150613cd282846139e4565b9150819050949350505050565b6000602082019050613cf46000830184613888565b92915050565b6000608082019050613d0f6000830187613888565b613d1c6020830186613888565b613d296040830185613c4d565b8181036060830152613d3b8184613941565b905095945050505050565b60006020820190508181036000830152613d6081846138ae565b905092915050565b6000602082019050613d7d600083018461390c565b92915050565b6000602082019050613d98600083018461391b565b92915050565b60006020820190508181036000830152613db8818461397a565b905092915050565b60006020820190508181036000830152613dd981613a63565b9050919050565b60006020820190508181036000830152613df981613a86565b9050919050565b60006020820190508181036000830152613e1981613aa9565b9050919050565b60006020820190508181036000830152613e3981613acc565b9050919050565b60006020820190508181036000830152613e5981613aef565b9050919050565b60006020820190508181036000830152613e7981613b12565b9050919050565b60006020820190508181036000830152613e9981613b35565b9050919050565b60006020820190508181036000830152613eb981613b58565b9050919050565b60006020820190508181036000830152613ed981613b7b565b9050919050565b60006020820190508181036000830152613ef981613b9e565b9050919050565b60006020820190508181036000830152613f1981613bc1565b9050919050565b60006020820190508181036000830152613f3981613be4565b9050919050565b60006020820190508181036000830152613f5981613c07565b9050919050565b6000602082019050613f756000830184613c4d565b92915050565b6000613f85613f96565b9050613f9182826142c6565b919050565b6000604051905090565b600067ffffffffffffffff821115613fbb57613fba61445b565b5b602082029050602081019050919050565b600067ffffffffffffffff821115613fe757613fe661445b565b5b613ff0826144a3565b9050602081019050919050565b600067ffffffffffffffff8211156140185761401761445b565b5b614021826144a3565b9050602081019050919050565b6000819050602082019050919050565b60008190508160005260206000209050919050565b600081519050919050565b600081519050919050565b600081519050919050565b6000602082019050919050565b600082825260208201905092915050565b600082825260208201905092915050565b600082825260208201905092915050565b600081905092915050565b60006140ca82614248565b91506140d583614248565b9250827fffffffffffffffffffffffffffffffffffffffffffffffffffffffffffffffff0382111561410a5761410961439f565b5b828201905092915050565b600061412082614248565b915061412b83614248565b92508261413b5761413a6143ce565b5b828204905092915050565b600061415182614248565b915061415c83614248565b9250817fffffffffffffffffffffffffffffffffffffffffffffffffffffffffffffffff04831182151516156141955761419461439f565b5b828202905092915050565b60006141ab82614248565b91506141b683614248565b9250828210156141c9576141c861439f565b5b828203905092915050565b60006141df82614228565b9050919050565b60008115159050919050565b6000819050919050565b60007fffffffff0000000000000000000000000000000000000000000000000000000082169050919050565b600073ffffffffffffffffffffffffffffffffffffffff82169050919050565b6000819050919050565b82818337600083830152505050565b60005b8381101561427f578082015181840152602081019050614264565b8381111561428e576000848401525b50505050565b600060028204905060018216806142ac57607f821691505b602082108114156142c0576142bf6143fd565b5b50919050565b6142cf826144a3565b810181811067ffffffffffffffff821117156142ee576142ed61445b565b5b80604052505050565b600061430282614248565b91507fffffffffffffffffffffffffffffffffffffffffffffffffffffffffffffffff8214156143355761433461439f565b5b600182019050919050565b600061434b8261435c565b9050919050565b6000819050919050565b6000614367826144b4565b9050919050565b600061437982614248565b915061438483614248565b925082614394576143936143ce565b5b828206905092915050565b7f4e487b7100000000000000000000000000000000000000000000000000000000600052601160045260246000fd5b7f4e487b7100000000000000000000000000000000000000000000000000000000600052601260045260246000fd5b7f4e487b7100000000000000000000000000000000000000000000000000000000600052602260045260246000fd5b7f4e487b7100000000000000000000000000000000000000000000000000000000600052603260045260246000fd5b7f4e487b7100000000000000000000000000000000000000000000000000000000600052604160045260246000fd5b600080fd5b600080fd5b600080fd5b600080fd5b600080fd5b6000601f19601f8301169050919050565b60008160601b9050919050565b7f53414c455f535441525445445f414c52454144595f5345540000000000000000600082015250565b7f494e56414c49445f414444524553530000000000000000000000000000000000600082015250565b7f4f776e61626c653a206e6577206f776e657220697320746865207a65726f206160008201527f6464726573730000000000000000000000000000000000000000000000000000602082015250565b7f4d494e545f4e4f545f5354415254454400000000000000000000000000000000600082015250565b7f50524553414c455f4e4f545f5354415254454400000000000000000000000000600082015250565b7f504f4f525f4d4f4e455900000000000000000000000000000000000000000000600082015250565b7f546f6b656e20646f6573206e6f74206578697374000000000000000000000000600082015250565b7f4f776e61626c653a2063616c6c6572206973206e6f7420746865206f776e6572600082015250565b7f454d5054595f42414c414e434500000000000000000000000000000000000000600082015250565b7f5265656e7472616e637947756172643a207265656e7472616e742063616c6c00600082015250565b7f50524553414c455f535441525445445f414c52454144595f5345540000000000600082015250565b7f434f554e545f494e56414c494400000000000000000000000000000000000000600082015250565b7f4d41585f535550504c595f524541434845440000000000000000000000000000600082015250565b7f2f00000000000000000000000000000000000000000000000000000000000000600082015250565b61472e816141d4565b811461473957600080fd5b50565b614745816141e6565b811461475057600080fd5b50565b61475c816141f2565b811461476757600080fd5b50565b614773816141fc565b811461477e57600080fd5b50565b61478a81614248565b811461479557600080fd5b5056fea2646970667358221220185c6e0fbc9035e64f56847d9f0e4731809defc999787a18152f5fdb0afb54d764736f6c63430008070033",
  "linkReferences": {},
  "deployedLinkReferences": {}
}